:020000040800F2
:10000000381E0020A1010008DD220008911300081D
:10001000D922000855090008F75D0008000000001B
:10002000000000000000000000000000912C00080B
:10003000890A00080000000065290008E530000872
:10004000BB010008BB010008BB010008BB010008A0
:10005000BB010008BB010008BB010008BB01000890
:10006000BB010008BB010008BB010008BB01000880
:10007000BB010008BB010008BB010008BB01000870
:10008000BB010008BB010008BB010008BB01000860
:10009000BB010008BB010008BB010008BB01000850
:1000A000BB010008BB010008BB010008BB01000840
:1000B000BB010008BB01000885360008BB01000831
:1000C000BB010008BB010008BB010008BB01000820
:1000D000BB010008F15A0008BB010008BB01000881
:1000E000BB010008BB010008BB010008BB01000800
:1000F000BB010008BB010008BB010008BB010008F0
:10010000BB010008BB010008BB010008BB010008DF
:10011000BB010008BB010008BB010008BB010008CF
:10012000BB010008BB010008BB010008BB010008BF
:10013000BB010008BB010008BB010008BB010008AF
:10014000BB010008BB010008BB010008BB0100089F
:10015000BB010008BB010008BB010008BB0100088F
:10016000BB010008BB010008BB010008BB0100087F
:10017000BB010008BB010008BB010008BB0100086F
:10018000BB010008BB010008DFF810D000F02CFB19
:1001900000480047B1780008AFF30080381E002007
:1001A0000648804706480047FEE7FEE7FEE7FEE711
:1001B000FEE7FEE7FEE7FEE7FEE7FEE72531000883
:1001C000890100082DE9FE4F81EA030404F0004490
:1001D00021F0004100944FF0000B23F0004350EA5F
:1001E00001045ED052EA03045BD0C3F30A54C1F3A6
:1001F0000A552C44A4F2F3340194A0FB0254C1F339
:10020000130141F48011C3F3130343F4801301FB82
:10021000024400FB034E840A970A44EA815447EAE9
:100220008357A4FB076802958D0A05FB07854FEAF3
:10023000932C04FB0C542705029D4FEA065847EA0D
:100240001637B5EB08056EEB070C870E920E47EAE2
:10025000811742EA8312A7FB0201B6EB0B0164EBA4
:1002600000042B0D43EA0C335E1844EB1C50DA46B5
:100270005146E7FB0201C5F313044FEA0B3343EA8F
:1002800014534FEA0432019C43EA0603A4F10C0420
:100290000294009CCDE900B400F0D6F803B0BDE8AC
:1002A000F08F00200146F9E70EB540F2334102918C
:1002B0000021CDE900110A460B4600F0C5F803B055
:1002C00000BDC1F30A5210B5C1F3130140F2FF3370
:1002D00041F480119A4201DA002010BD40F233430C
:1002E0009A42A2F2334203DC524200F08EF810BD73
:1002F000904010BD00F0004230F000400AD0C10D27
:1003000001F56071C0F3160042EA0151C2084007CE
:1003100011437047002001467047000030B5041EAD
:1003200071F1000404DB4FF00044404264EB010132
:10033000141E73F1000405DB1C464FF000435242CB
:1003400063EB04038B4208BF824230BD30B5041E0C
:1003500071F1000404DB4FF00044404264EB010102
:10036000141E73F1000405DB1C464FF0004352429B
:1003700063EB0403994208BF904230BD30B50B4691
:10038000014600202022012409E021FA02F59D42C5
:1003900005D303FA02F5491B04FA02F52844151E99
:1003A000A2F10102F1DC30BD2DE9F05F054600202D
:1003B00092469B4688460646814640241BE02846D6
:1003C00041464746224600F020F853465A46C01A96
:1003D000914110D311461846224600F017FA2D1A03
:1003E00067EB01084F4622460120002100F00EFA7B
:1003F00017EB00094E41201EA4F10104DFDC484642
:1004000031462A464346BDE8F09F202A04DB203AC5
:1004100021FA02F00021704721FA02F3D040C2F124
:100420002002914008431946704710B5141E73F11D
:10043000000408DA401C41F1000192185B411A43A4
:1004400001D120F0010010BD2DE9F04D92469B46F0
:1004500011B1B1FA81F202E0B0FA80F22032904696
:1004600000F0D4F904460F4640EA0A0041EA0B01C5
:1004700053465A46084313D0114653EA010019D097
:10048000C8F140025046FFF7C0FF05460E465046F1
:100490005946424600F0BAF9084305D0012004E06D
:1004A00020463946BDE8F08D0020054346EAE07657
:1004B0002C4337430A986305E40AA0EB08000022A6
:1004C000FD0A44EA47540A3002D500200146E9E714
:1004D000010510196941DDE9084500196941BDE8C8
:1004E000F04DA2E72DE9FE4F804681EA0300C00FE0
:1004F0000C46009021F0004123F00045B8EB0200CB
:10050000A94105D24046214690461C460B4602466C
:1005100023F00040104347D0270DC7F30A00C3F370
:100520000A510290401A019040286BDAC3F313007D
:1005300040F4801B0098924620B10023D2EB030ABE
:1005400063EB0B0B01985946C0F14002504600F096
:100550005DF906460D4650465946019A00F065F988
:1005600010EB08006141002487EA115284EAE77326
:100570001A4340D0009A62B3019A012A4FEA075207
:1005800015DC001B61EB02014FF0004202EA07524A
:10059000CDE90042001C41F5801132462B46FFF7A1
:1005A00053FF03B0BDE8F08F40462146F9E7001B3A
:1005B00061EB0201001C41F5801300185B4120181B
:1005C000A2F5001747EB030140EAD570B6196D415B
:1005D00011E06D084FEA360645EAC0754FEA07524A
:1005E000001B61EB0201001C41F5801149084FEA34
:1005F00030000019514132462B4603B0BDE8F04FA0
:10060000FFF713BF0098012240000023D0EB020245
:1006100063EBE073009821464FEAE074B8EB00000A
:1006200061EB0401E9E783F000435BE781F00041FF
:1006300058E72DE9F04D81EA030404F0004B21F066
:10064000004514464FF0000A23F0004150EA05022D
:1006500020D054EA01021DD0C5F30A570246C5F363
:100660001303C1F31300C1F30A5640F4801543F499
:100670008013A7EB0608101BD64608F2FD3873EB73
:10068000050002D308F1010801E092185B41B8F1BE
:10069000000F03DA00200146BDE8F08D00204FF482
:1006A0008011064684460EE0171B73EB050705D341
:1006B000121B63EB050306434CEA010C49084FEAA1
:1006C000300092185B4150EA0107EDD152EA030075
:1006D00012D082EA040083EA0501084305D0101B0A
:1006E000AB4106D20122002306E000224FF0004376
:1006F00002E06FF0010253101AEB06004CEB0851B8
:1007000010EB0A0041EB0B01BDE8F04DFFF78DBE89
:100710002DE9F04D00231A461B1A8A4103DB002005
:100720000146BDE8F08DC1F30A52C1F3130141F453
:1007300080154FF0000BD10702D100186D41521EF9
:100740000027044640F2FF11384601EB620A3E469C
:100750008046024600204FF48011FFF756FEC21972
:100760007141BB1846EB0100B4EB030C75EB000CB8
:1007700004D3E41A65EB000517460E46241908F168
:1007800001006D4180463428E3DDF91946EB06008F
:10079000091BA84103D24FF0FF32134601E00022AB
:1007A00013461BEB070046EB0A51BDE8F04DFFF77F
:1007B0003CBEC1F30A52C1F3130140F2FF3341F4CE
:1007C00080119A4202DA00200146704740F233431A
:1007D0009A42A2F2334202DC5242FFF716BE00F008
:1007E00015B8002070470000064C074D06E0E06891
:1007F00040F0010394E8070098471034AC42F6D368
:10080000FFF7C6FCA4C60008C4C60008202A04DB03
:10081000203A00FA02F1002070479140C2F1200313
:1008200020FA03F3194390407047202A06DBCB17C8
:10083000203A41FA02F043EAE07306E041FA02F39B
:10084000D040C2F12002914008431946704710B5CC
:1008500000F0BCFD10BD2DE9F04107460C46002616
:10086000002509E036023919491B491E88B200F0FB
:1008700008F80644681CC5B2A542F3DB3046BDE863
:10088000F08170B50446002600F040FE2546E117D1
:1008900004EB11610912A02202EB4101C8B200F081
:1008A00003FE00F06BFEE11704EB11610912A4EBEB
:1008B0000121C8B200F0F8FD00F060FE00F026FE55
:1008C000A12000F0F1FD00F059FE002000F0C0FD75
:1008D000064600F037FE304670BD2DE9F041054672
:1008E0000E461746002409E0E20026FA02F2D1B2D1
:1008F0002A1990B200F006F8601CC4B2BC42F3DBC7
:10090000BDE8F08170B504460E4600F0FFFD2546B7
:10091000E11704EB11610912A02202EB4101C8B2F8
:1009200000F0C2FD00F02AFEE11704EB116109128C
:10093000A4EB0121C8B200F0B7FD00F01FFE304665
:1009400000F0B2FD00F01AFE00F0FCFD0A2006F0F7
:1009500026FF70BD00BFFEE730B5A3B0A5208DF81F
:100960004800354800788DF84900334880782030B9
:10097000C0B28DF84A00032404E0002012A90855F3
:10098000601C84B2422CF8D34FF480512B4800F005
:10099000FBFC002407E012A9085D02F05DF901A943
:1009A0000855601C84B2422CF5D34FF48051234883
:1009B00000F0ECFC9DF804005A2804D09DF80410C7
:1009C0001FA005F01BFA02241BE001A8005D80387F
:1009D00045B224480088C8280AD21748D83021498F
:1009E000098845541F480088401C1E49088002E0C1
:1009F00000201C49088029461B4800F043F9601C70
:100A000084B2422CE1D3184890F851000A49097881
:100A100088420FD008480178134800F074F8124853
:100A200000F0BEF904480078104A52F8201010A0D7
:100A300005F0E4F923B030BD90000020000402402E
:100A400046504741206672616D65206572726F7213
:100A50003A206865616465723D3078253032580D02
:100A60000A0000000C000020DC0C00204C7A00087A
:100A700044656D6F64207265696E69743A204D6FCC
:100A8000643D25730D0A0000704770B505460C469D
:100A9000204600F008F80646284600F004F846EA2A
:100AA0008000C0B270BD014611F1200F01DA0020B4
:100AB0007047002901DA0120FAE7202901DA032032
:100AC000F6E70220F4E70146002901DD0120704726
:100AD0000020FCE70246002A01DD022000E00020A1
:100AE000002901DD012300E000231843704701467F
:100AF000886C08B900207047B1F84C0000058A6C7A
:100B0000B0FBF2F0F7E710B50A46002108E0002438
:100B1000831C23F811401E3323F811404B1CD9B21B
:100B20000F29F4DB0023343000F8343C8372C372A5
:100B30008381C38103744374436183610123037719
:100B40004277343810BD00002DE9F0412DED028BC5
:100B500086B006460F4614461D463348FFF7C7FFCA
:100B600000EE100AB8EE400ADFED300A80EE201ADF
:100B700011EE108A2E48C0F804802B48C06C2C4916
:100B800088602948806CC8602A480088C82815D227
:100B90007F2C01DD7F2006E014F17F0F02DA6FF079
:100BA0007E0000E0204641B22348224A1288815448
:100BB00020480088401C1F49088002E000201D4991
:100BC000088061B21D481E4A1278815469B2803093
:100BD0001B4A127881541A480078401C00F07F00AC
:100BE0001749087017480068401C164908600846F5
:100BF0000068642812D3002008604046FFF77AFBA3
:100C000041EC180B0848C06C04908DED028B234614
:100C10003A4631460CA0009505F0F0F806B0BDEC60
:100C2000028BBDE8F0810000DC0C00200000804950
:100C300090000020040000203002002078030020F3
:100C4000060000200800002044656D6F643A2062B1
:100C50006974733D25303258206E626974733D2586
:100C60006420493D256420513D2564204245523D84
:100C7000252E3265204572724269743D256C750DD2
:100C80000A0000002DE9F04F87B004460F464FF0F0
:100C900000080025AA4620783F4908567843C0112D
:100CA000069020783D490856404278434FEAE01BC1
:100CB0002078001D00F01F00207004A805A9CDE9D0
:100CC00000B1029004F13E0204F12001A01C069B39
:100CD00000F0D8F914F83F0F401C207014F83F09B9
:100CE000082802DA07B0BDE8F08F0020403404F88D
:100CF000010CBDF914002080BDF910006080607CFB
:100D0000403C20B1012809D0022810D110E0BDF9E3
:100D10001400FFF7D8FE8046012512E0BDF910103F
:100D2000BDF91400FFF7D6FE8046022509E000BF9A
:100D3000BDF91010BDF91400FFF7A7FE8046042589
:100D400000BF00BF84F8448084F84550002610E0BE
:100D500004F1500001F00AFB814648FA06F000F069
:100D60000100484503D00AF1010000F0FF0A701CA1
:100D7000C6B2AE42ECDBA06C2844A064E06C5044E8
:100D8000E064BDF91030BDF9142029464046FFF754
:100D9000DBFE00BFA6E70000C47A0008E47A000882
:100DA00000218164C164012180F850107047000067
:100DB00010B5084AC821A2F6282000F011F8064A0A
:100DC000C821A2F5EC6000F00BF80120034981F87E
:100DD000380C10BDC80A0020C80800209000002070
:100DE0002DE9F74F2DED108B83468A4600243DE018
:100DF00054452BDA00EE104AB8EE400ADFED9C0AAB
:100E000060EE200AAAF1010000EE100AB8EE400AD6
:100E100080EE801AB0EE41FAB0EE4F0A05F012F8FB
:100E2000F6EE000AB6EE001AF0EE60EA41EE40EA95
:100E30001BF9040000EE100AB8EEC00A20EE2E0ADC
:100E40008C4800EB840080ED000A06E09FED8A0AE2
:100E5000884800EB840080ED000A9FED870A8748F0
:100E600000EB840080ED000A601C84B2FF2CBFDD23
:100E70000025012438E04FF0800903E085EA0905E8
:100E80004FEA690905EA09000028F7D185EA090552
:100E9000AC4227DA774800EB840090ED00CA754831
:100EA00000EB850090ED000A724800EB840080EDB5
:100EB000000A704800EB850080ED00CA6F4800EB27
:100EC0008400D0ED00CA6D4800EB850090ED000A6B
:100ED0006A4800EB840080ED000A684800EB85005A
:100EE000C0ED00CA601C84B2FF2CC4DD4FF00208C4
:100EF00094E04FEA680600EE108AB8EE400ADFED93
:100F0000600A80EE80DAB0EE4D0A04F09BFFF0EE4E
:100F1000409AB0EE4D0A05F0FFFCB0EE408A002486
:100F200076E0B7EE000AF0EE408A9FED530AB0EE8D
:100F3000409A002567E060194E4901EB800090ED72
:100F400000AA60194D4901EB8000D0ED00AA60199C
:100F50003044484901EB800090ED000A20EE280A59
:100F600060193044454901EB8000D0ED000AB0EE35
:100F700040BA00EEC9BA601930443E4901EB800026
:100F800090ED000A20EE090A601930443B4901EB5C
:100F90008000D0ED000AF0EE40BA40EEA8BA3AEE7A
:100FA0000B0A6019334901EB800080ED000A3AEE2C
:100FB000AB0A6019314901EB800080ED000A3AEE7E
:100FC0004B0A601930442B4901EB800080ED000A88
:100FD0003AEEEB0A60193044284901EB800080EDBD
:100FE000000A28EEA90AF0EE40DA49EE48DA28EEC7
:100FF000880AB0EE40EA09EE29EAF0EE6D8AB0EE1A
:101000004E9A681C85B2B54295DB04EB080084B2A9
:10101000FF2C86DD4FF6FF7000EA4808B8F5807FA8
:101020007FF767AF00271DE0124800EB8700D0ED87
:10103000000A60EEA00A114800EB870090ED001A4C
:101040000E4800EB8700D0ED001A41EE210AB0EE09
:10105000600A05F066FD129800EB870080ED000A3B
:10106000781C87B2802FDFDBBDEC108BBDE8FE8FD4
:10107000DB0FC940700D002000000000701100203F
:10108000DB0FC9C02DE9F04F04460D469946DDE956
:101090000AC8099F0020002192F800A024F81A90A5
:1010A00092F800A025F81A7092F800A00AF1010A3F
:1010B0004FF00F0BBAFBFBFE0BFB1EAA82F800A041
:1010C00000231EE092F800A09A444FF00F0B9AFB09
:1010D000FBFE0BFB1EAA0AF0FF0634F816A0DFF891
:1010E00060B03BF813B01AFB0B0035F816A0DFF820
:1010F00050B03BF813B01AFB0B1103F1010A0AF0D0
:10110000FF030F2BDEDBC013C9137F2800DD7F2018
:1011100010F17F0F01DA6FF07E007F2900DD7F2163
:1011200011F17F0F01DA6FF07E010FFA80FAACF84F
:1011300000A00FFA81FAA8F800A0BDE8F08F000027
:10114000047B000851B18200A2F1C042126842F053
:1011500001038200A2F1C042136009E08200A2F103
:10116000C0421268034B1A408300A3F1C0431A60C7
:1011700070470000FEFF0F0030B500210022002361
:101180000468A400A4F1C0442168444C2140D0E983
:1011900001452C43C5682C4305692C4345692C4304
:1011A00085692C43C5692C43056A2C43456A2C4349
:1011B000856A2C43C56A2C43056B2C432143046884
:1011C000A400A4F1C04421608468082C0BD10468F9
:1011D000A400A4F1C044246844F040050468A400BD
:1011E000A4F1C04425600468641CA400A4F1C044B8
:1011F000226802F04042446B2468456B6D6844EA03
:101200000514456BAD6844EA0524456BAD8944EA95
:101210000544456B2D8A44EA0554456B2D7D44EA0F
:101220000564456BAD692C4322430468641CA4002B
:10123000A4F1C0442260C46AB4F5804F24D104688C
:10124000A400A4F1C044D4F8043103F04043846BFB
:101250002468856B6D6844EA0514856BAD6844EAC3
:101260000524856B2D8A44EA0554856B2D7D44EA5F
:101270000564856BAD692C4323430468A400A4F185
:10128000C044C4F8043107E06FF070450468A4005E
:10129000A4F1C044C4F8045130BD00008000F7FF41
:1012A000F0B50A4600210023002400BF3DE00125DF
:1012B00005FA01F3156805EA03049C4234D1056878
:1012C0004F000326BE40B543056015794E00B5407A
:1012D0000668354305601579012D02D01579022D78
:1012E00016D185684F000326BE40B5438560557909
:1012F0004E00B540866835438560456801268E40BE
:10130000B5434560456896798E40B6B23543456031
:10131000C5684F000326BE40B543C560D5794E0071
:10132000B540C6683543C560491C1029BFD3F0BD20
:10133000F0B5002300244D07ED0E02FA05F3CE10A0
:1013400000F1200555F826504E07F70E0F26BE4037
:10135000B543CF1000F1200646F82750CE1000F11B
:10136000200555F8265045EA0304CE1000F120056B
:1013700045F82640F0BD0246002013690B400BB132
:10138000012000E0002070474183704701837047CF
:1013900000BFFEE710B500200A49086001F0AAFB73
:1013A00000200949C1F8A402022006F03BFA0120FE
:1013B00004490860052006F035FA00200249C1F80A
:1013C000A00210BDA0824042008040421CB5012115
:1013D000022001F0C9FA4FF44070009001208DF80E
:1013E000040000208DF8060003208DF80500012080
:1013F0008DF8070069460548FFF752FF01200449B0
:1014000008600449C1F8A4021CBD000000040240A9
:10141000A08240420080404210B500200A49086086
:1014200001F068FB01200949C1F8A402022006F07E
:10143000F9F9012004490860052006F0F3F90020BD
:101440000249C1F8A00210BDA08240420080404283
:1014500070B50546002401F03BFB002616E0002095
:101460000F490860022006F0DDF901200D49C1F89E
:10147000A0026006040E0A487C38006808B1601CAF
:10148000C4B2012006F0CEF9701CC6B2082EE6DB0D
:1014900015B9FFF7C1FF01E0FFF77CFF204670BDE3
:1014A000A08240420080404270B5044601F022FB19
:1014B000002014490860002520E004F08000002886
:1014C00004DD01200F49091D086003E000200D49DB
:1014D000091D08606006040E022006F0A3F9012031
:1014E00008490860022006F09DF900200649C1F86D
:1014F000A002022006F096F9681CC5B2082DDCDBBC
:1015000070BD0000A08240420080404210B501F052
:10151000F1FA0120094908600949C1F8A002052033
:1015200006F080F9002005490860062006F07AF9E7
:1015300000200349C1F8A00210BD0000A48240426F
:101540000080404210B501F0D5FA0020094908603A
:101550000949C1F8A402012006490860062006F0E6
:1015600061F901200449C1F8A402062006F05AF9E5
:1015700010BD0000A08240420080404210B500240F
:1015800001F0A6FA01200E49086006F04BF901208F
:101590000C49C1F8A00206F045F907E0601CC4B28E
:1015A000FA2C03DDFFF7CEFF012010BD0448803880
:1015B00000680028F2D10249091F086000BFF4E763
:1015C000A48240420080404270B52DED028B86B06F
:1015D000044641F2A200009004F1590083B240F2A7
:1015E00037122146082000F09BFC04F1590083B219
:1015F00040F237122146082000F028FC47F6FF7021
:101600005649088041F2A2005549088055A0102192
:10161000CDE90010201D81B2102378220E2000F0A9
:10162000E9FD544890ED010AB0EE408A002507E03C
:10163000B2EE040A28EE000AB0EE408A681CC5B279
:101640009FED4D0AB4EEC08AF1EE10FA01D2092DD9
:10165000EEDB42208DF80C0045208DF80D00522065
:101660008DF80E003C208DF80F0031208DF8100011
:1016700045208DF811002D208DF81200072605F168
:101680003000C2B23146761C03A84254002003A9A0
:101690008855384890ED010ADFED380AB4EEE00ACB
:1016A000F1EE10FA02D24FF4FC600EE0314890EDFA
:1016B000010ADFED330AB4EEE00AF1EE10FA02D2CD
:1016C0004FF6E07001E04FF478402449088003A809
:1016D0001021CDE9001004F1180081B210238C22F2
:1016E0000E2000F087FD4FF6FF701C49088041F284
:1016F000A2001B49088023A01021CDE9001004F1AD
:101700002E0081B2102350220E2000F073FD102015
:1017100000901848826804F12E0081B206236420EC
:1017200000F01EFD19A01021CDE9001004F14200C7
:1017300081B2102350220E2000F05CFD102000909A
:101740000C48C26804F1420081B20623642000F014
:1017500007FD06B0BDEC028B70BD00002600002026
:10176000280000204D6561737572656D656E747338
:101770000000000090000020CDCCCC3D17B7D13840
:101780000AD7233C4572724269743A00546F74421E
:1017900069743A002DE9FC5F2C2741F2A20007F1A1
:1017A000330340F2371239460090082000F0B8FBAE
:1017B00007F1330340F237123946082000F046FBA8
:1017C00047F6FF703349088041F2A2003249088091
:1017D00032A01021CDE90010391D102378220E20EF
:1017E00000F008FD4FF058084FF0160900244DE0B6
:1017F00004EB44000E2101EB401507F1180086B2FE
:1018000029480078A04202D147F6FF7001E042F675
:101810004510824624480078A04201D1002001E012
:101820004FF6FF70834606EB0900401E83B205EBBE
:101830000800401E82B231462846CDF800A000F0D4
:101840006FFB06EB0900401E83B205EB0800401E4B
:1018500082B23146284600F0F9FA0E48A0F800B0EE
:101860000D48A0F800A0114850F824001021A8F15C
:1018700004039AB2331DCDE9001099B205F10803B3
:1018800098B2102300F0B6FC601CC4B2032CAFDB8E
:10189000BDE8FC9F26000020280000204D6F6475E5
:1018A0006C6174696F6E3A00900000204C7A0008F9
:1018B0001CB5044641F2A200009004F14F0083B22F
:1018C00040F237122146082000F02AFB04F14F00B5
:1018D00083B240F237122146082000F0B7FA47F6EB
:1018E000FF701E49088041F2A2001D4908801DA01A
:1018F0001021CDE90010201D81B2102378220E2086
:1019000000F078FC4FF6FF701449088018A01021F1
:10191000CDE9001004F1180081B210234FF4967243
:101920000E2000F067FC17A01021CDE9001004F193
:101930002C0081B210234FF496720E2000F05AFC56
:1019400016A01021CDE9001004F1400081B210234F
:101950004FF496720E2000F04DFC1CBD26000020B6
:1019600028000020506172616D657465727300001B
:1019700053796D526174653A20313235206B537959
:101980006D2F7300526F6C6C6F66663A20302E3389
:101990003520205350533A380000000046633A3255
:1019A00030306B487A202046733A314D487A000037
:1019B0002DE9F04F87B06FF00100049014200390E0
:1019C000682741F2A20007F1310340F2371239468D
:1019D0000090082000F0A4FA07F1310340F237121A
:1019E0003946082000F032FA47F6FF705F49088058
:1019F00041F2A2005E4908805EA01021CDE90010EE
:101A0000391D10235A220E2000F0F4FB5C48B0F977
:101A100002804FF0000BB8F1000F0ADA2D22584671
:101A2000411C01F0FF0B05A90A54C8F100000FFA90
:101A300080F8B8F10A0F0ADB0A2098FBF0F030308A
:101A4000C2B25846411C01F0FF0B05A90A540A20F6
:101A500098FBF0F100FB11803030C2B25846411CB7
:101A600001F0FF0B05A90A54002001F80B004FF606
:101A7000FF703E49088005A81021CDE90010381DEF
:101A800081B2102328224FF4897000F0B3FB0E249A
:101A900007F11C0085B24FF492763948B0F9021074
:101AA0000498081A7043DDE90312891A90FBF1F0DB
:101AB0001FFA80F9B14500DDB14642F645100090AD
:101AC00005F10A0083B2A019401E82B229462046C1
:101AD00000F026FA47F6FF70009005F10A0083B285
:101AE00004EB090082B22946204600F019FA04EB03
:101AF00009001FFA80FAA019801F504503DAA019C7
:101B0000801F1FFA80FA4FF6FF70009005F10E005B
:101B100083B20AF1080082B2281F81B2504600F059
:101B2000FFF94AF675501149088041F2A2001049A8
:101B3000088014A00C21CDE9001005F10C0081B241
:101B40000C231422204600F055FB0FA00C2105F1B8
:101B50000C02CDE9001091B2A2190E3A90B20C23FA
:101B6000142200F047FB07B0BDE8F08F26000020EC
:101B700028000020534E5220286442293A000000D9
:101B8000900000202D320000323000001CB50121F1
:101B9000112000F0E9FE00208DF8040002208DF8ED
:101BA000050001208DF80700009069460448FFF702
:101BB00077FB1820009069460248FFF771FB1CBDB7
:101BC000000002400010024010B50024012112481C
:101BD000FFF7D1FB08B901240CE008210F48FFF7FB
:101BE000CAFB08B9022405E010210C48FFF7C3FB2B
:101BF00000B903244CB10A48007830B90848047091
:101C0000142005F0CCFD204610BD14B90020044975
:101C100008700020F8E700000000024000100240B9
:101C20000E00002070B506460F484088401E83B263
:101C30000D480088401E82B20021084600F0A9F934
:101C400000240CE0002504E0304600F013FB681C83
:101C500085B205484088A842F6DC601C84B2024880
:101C60000088A042EEDC70BD2A00002000B50246CC
:101C70000F4882716AB9362000F0F0FA002000F0B7
:101C8000F3FA4FF4F0700A4948804FF4A0700880CE
:101C90000CE0362000F0E2FA602000F0E5FA4FF4A4
:101CA000A070034948804FF4F070088000BD000028
:101CB0002A00002070B504460D4616462B462246E3
:101CC0002946204600F065F9304600F0D3FA70BD91
:101CD0002DE9FF4F84B081468A4600200390029090
:101CE0000698A0EB09050798A0EB0A06CDF804902A
:101CF000CDF800A0002D01DD012705E00DB900277A
:101D000002E04FF0FF376D42002E02DD4FF0010878
:101D100006E016B94FF0000802E04FF0FF387642B7
:101D2000B54201DD2C4600E034464FF0000B21E0C7
:101D3000009A91B2019A90B200F078F80398284482
:101D400003900298304402900398A04205DD039866
:101D5000001B03900198384401900298A04205DDD1
:101D60000298001B02900098404400900BF1010083
:101D70001FFA80FB601C8345DADD08B0BDE8F08FF8
:101D80002DE9FF4F84B081468A46002002908346A9
:101D90000698A0EB09050798A0EB0A06CDF8049079
:101DA000CDF800A0002D01DD012705E00DB90027C9
:101DB00002E04FF0FF376D42002E02DD4FF00108C8
:101DC00006E016B94FF0000802E04FF0FF38764207
:101DD000B54201DD2C4600E03446002003901EE0B1
:101DE000009A91B2019A90B2119AFFF763FF02989C
:101DF00028440290B3440298A04205DD0298001BDB
:101E00000290019838440190A34504DDABEB040B2C
:101E10000098404400900398401C80B20390611CDD
:101E200003988842DCDD08B0BDE8F08F30B5044689
:101E30000D462B4622462946204600F0AAF80248C5
:101E4000008800F017FA30BD26000020F0B50446E7
:101E50000D4616461F462B46324629462046FFF7BA
:101E600037FF3B46224629462046FFF731FF3B46D7
:101E7000324639462046FFF72BFF3B46324629467D
:101E80003046FFF725FFF0BD2DE9F04306460F462B
:101E90009046002445460320A0EB48093CE07A1B0D
:101EA00091B2321990B2FFF7C1FF3A1B91B2721989
:101EB00090B2FFF7BBFF3A1991B2721990B2FFF7D7
:101EC000B5FF7A1991B2321990B2FFF7AFFF7A19C4
:101ED00091B2321B90B2FFF7A9FF3A1991B2721B6F
:101EE00090B2FFF7A3FF7A1B91B2321B90B2FFF7BB
:101EF0009DFF3A1B91B2721B90B2FFF797FF641CD3
:101F0000B9F1000F03DAA000801D814404E0601BDA
:101F100080000A3081446D1EAC42C0DDBDE8F08314
:101F20002DE9F04304460D4616461F46DDF81C8099
:101F3000B44201DCBD4201DDBDE8F0833B463246E0
:101F40002946204600F025F8301B401C84B2781B3F
:101F5000401C85B20BE0A94602E0404600F08AF939
:101F6000B9F10000A9F101011FFA81F9F5D1201E94
:101F7000A4F101018CB2EED100BFDDE710B502463D
:101F8000012000E050430B1EA1F10104E1B2F9D1A0
:101F900010BD70B504460D462A2000F05FF92646B4
:101FA000E11704EB1161C1F30F2000F05DF9E117B7
:101FB00004EB11610912A4EB012188B200F054F97D
:101FC0001646D11702EB1161C1F30F2000F04CF956
:101FD0001646D11702EB11610912A2EB012188B25A
:101FE00000F042F92B2000F039F92E46E91705EBF5
:101FF0001161C1F30F2000F037F9E91705EB11610A
:102000000912A5EB012188B200F02EF91E46D9175E
:1020100003EB1161C1F30F2000F026F91E46D9171A
:1020200003EB11610912A3EB012188B200F01CF946
:102030002C2000F013F970BD2DE9F84F80460E46B4
:1020400017461C46B3462046E31704EB5373DB10D8
:1020500021464FEAE47C04EB5C7C4FEAEC0CA4EBF9
:10206000CC0CBCF1000F02D04FF0010C01E04FF09E
:10207000000C6344224604EBD27C4FEA6C0C03FB59
:102080000CF3DBB20093A7F12000C7B2002556E0A5
:102090000C2C07D107EB47002B4901EB800010F80F
:1020A000059013E0102C05D1284800EB071010F81C
:1020B00005900BE0182C07D107EBC700244901EB72
:1020C000800010F8059001E0BDE8F88F4FF0000A9D
:1020D0002FE009F0800030B11E48028831464046AA
:1020E000FFF7E8FD07E00A9828B91B480288314647
:1020F0004046FFF7DFFD4FEA49604FEA1069701C68
:1021000086B216484088B04200DCDDE7A6EB0B0043
:10211000A0420AD15E4608F101001FFA80F80F487C
:102120000088404500DCCFE706E00AF1010000F03E
:10213000FF0ABAF1080FCCDB00BF681CC5B20098DB
:102140008542A5DB00BFBFE7227B0008967F000821
:102150008685000826000020280000202A00002094
:102160002DE9FF4F81B0074691461E460E9D4FF068
:10217000000A002439E0301B401EC1B20A20FFF7DC
:10218000FDFEB9FBF0F00A21B0FBF1F201FB1208F1
:10219000BAF1000F16D1701EA04213DDB8F1000F86
:1021A0000ED10020AB4605EBDB71491001FB047139
:1021B000009088B22B4620220299FFF73DFF12E0E3
:1021C0004FF0010A0020AB4605EBDB71491001FB23
:1021D0000471009088B208F13001CAB22B4602990E
:1021E000FFF72AFF00BF601CC4B2B442C3DB05B0D6
:1021F000BDE8F08F2DE9F84704460D469046994614
:10220000DDE9096704F0FF0A08EB04001FFA80F813
:1022100009EB05001FFA80F916E0444502DB54463D
:10222000A81985B24D4500DB14E0002000903A78F3
:10223000334629462046FFF7FFFE304606EBD071B5
:1022400004EB61018CB27F1C38787E2802DC387880
:102250002028E2DA00BFBDE8F887000001490880C5
:10226000704700007E00006C014908807047000044
:102270008000006C01490880704700008000006CFD
:102280001CB50121202000F06FFB01208DF8040017
:102290004002009003208DF8050000208DF8060014
:1022A00001208DF8070069460A48FEF7F9FF4FF450
:1022B00000710848FFF76AF84FF4806000906946A3
:1022C0000448FEF7EDFF4FF480610248FFF75EF827
:1022D0001CBD00000014024000BFFEE77047000074
:1022E00070B5002100230F22C4781CB3174C24685A
:1022F00004F4E064C4F5E064C4F30721C1F104040C
:10230000E3B20A4144789C40E1B28478144021430E
:102310000C07210E0E4C05786155047804F01F055A
:102320000124AC4005786D11AD0005F1E025C5F83C
:10233000004109E0047804F01F050124AC40054D7C
:102340000678761145F8264070BD00000CED00E0DF
:1023500000E400E080E100E002490143024A11602C
:10236000704700000000FA050CED00E001460A7815
:1023700092110B7882EA631202F001000A7840EAB7
:10238000420202F07F020A707047000010B508A0F8
:1023900003F0A6FA4FF4CC734FF49C72282104206A
:1023A00002F0F2FB05A207A107A003F00BF810BD95
:1023B0002020424552204375727665005061676562
:1023C00020310000000000005072657650616765A2
:1023D0000000000010B508A003F082FA4FF4CC739F
:1023E0004FF49C722821042002F000FE06A208A1EE
:1023F00008A002F0E7FF10BD202045796520446960
:10240000616772616D0000004E65787450616765A8
:1024100000000000507265765061676500000000A2
:102420002DE9F04389B06424A02704F13C086DA095
:1024300003F056FA40F2FF706F49088000206F49A0
:1024400008806FA00C210B465022CDE900102821F6
:102450000820FFF7CFFE4FF61F00674908806BA0EA
:102460000C210B466422CDE9001028211046FFF70D
:10247000C1FE80226948A0F180014023CDE90131ED
:10248000CDE90302C038A0F1400322464146009046
:10249000384602F0B5FE42F645105749088041F231
:1024A000A200564908805EA00C21A8F10802CDE9DF
:1024B000001091B23A19083A90B20C231A46FFF76D
:1024C00099FE58A00C21A8EB04020C3ACDE90010AB
:1024D00091B2BA1F90B20C231A46FFF78BFE382038
:1024E00000EB440000F110094FF6FF7042490880EC
:1024F0000020424908804CA010210B464FF49872EE
:10250000CDE9001049460820FFF774FE47F6FF703A
:102510003949088046480078464951F82000102182
:102520000B464622CDE9001049463C20FFF762FEEB
:1025300053208DF814004E208DF8150052208DF890
:1025400016003A208DF8170004253948B0F90260CA
:10255000002E07DA2D222846691CCDB205A90A549F
:10256000704206B20A2E09DB0A2096FBF0F03030EA
:10257000C2B22846691CCDB205A90A540A2096FBAE
:10258000F0F100FB11603030C2B22846691CCDB2B8
:1025900005A90A5464222846691CCDB205A90A542B
:1025A00042222846691CCDB205A90A54002048558C
:1025B0004FF6FF701049088005A81021CDE90010E2
:1025C00009F1140081B210234FF498720820FFF72C
:1025D00011FE19A21AA11BA002F0F4FE09B0BDE879
:1025E000F08300002020495120436F6E7374656CA6
:1025F0006C6174696F6E00002600002028000020C6
:102600006F20545820696465616C00002A2052587C
:10261000207265636569766564000000F803002038
:1026200049000000510000004D6F64653A00000051
:10263000900000204C7A00084E6578745061676500
:102640000000000050726576506167650000000070
:1026500010B50AA003F044F9FFF79CF8FFF7A8F9BA
:10266000A1242046FEF7B0FF61342046FFF720F991
:1026700006A209A10AA002F0A5FE10BD20205379F0
:102680007374656D20496E666F0000004E65787446
:1026900050616765000000004D6F642B0000000072
:1026A0004D6F642D000000003EB5C62513A003F059
:1026B00017F9282416A14FF4FC621A482B46CDE9DD
:1026C000012100904FF49C722146042002F0F0FE9C
:1026D000281D044414A147F6FF7218482B46CDE983
:1026E000012100904FF49C722146042002F0E0FE8C
:1026F00013A206A115A002F065FE3EBD2020537076
:1027000065637472756D20284646542900000000E8
:102710004261736562616E642053706563747275A3
:102720006D000000C80A00204D6F64756C6174650F
:102730006420537065637472756D0000C8080020D2
:102740004E657874506167650000000050726576D0
:1027500050616765000000007FB581251FA003F070
:10276000BFF8282420A14FF4FC62C8232148CDE9FA
:102770000132039100902B464FF49C7221460420B5
:1027800003F0F6F8281D04441BA147F6FF72C82386
:102790001848C830CDE90132039100902B464FF420
:1027A0009C722146042003F0E3F8281D044415A17F
:1027B0004FF6E072C8231648CDE90132039100902C
:1027C0002B464FF49C722146042003F0D1F811A24D
:1027D00007A113A002F0F6FD7FBD00002020576185
:1027E0007665666F726D00004261736562616E644A
:1027F00000000000A00000204D6F64756C617465DE
:102800006400000044656D6F64756C6174656400FC
:10281000300200204E65787450616765000000004A
:1028200050726576506167650000000038B5044657
:10283000012C04D0022C11D0032C43D130E02A48C3
:102840000078401CC0B2062190FBF1F201FB12009F
:102850002549087001202549087034E02248007895
:1028600078B923480078002803DD21480078401E0D
:1028700000E002201E490870FEF78CFF02F050FFB6
:102880000DE019480078401DC0B2062190FBF1F21E
:1028900001FB12001449087001201449087012E06D
:1028A0001148007868B912480078401C0321B0FB39
:1028B000F1F201FB12000E490870FEF76BFF02F007
:1028C0002FFF00E000BF00BF0948B0F902000090F0
:1028D00007480078074951F820300348027821461C
:1028E00005A003F08BFA38BD000000200100002095
:1028F000900000204C7A00084B65793D25642050FB
:102900006167653D2564204D6F643D257320534EFE
:10291000523D25640D0A000010B5114800780628C4
:1029200016D2DFE800F00306090C0F12FFF790FE45
:1029300011E0FFF711FF0EE0FFF7B6FE0BE0FFF727
:102940006FFD08E0FFF746FD05E0FFF71FFD02E021
:10295000FFF77EFE00BF00BF02F0E2FE10BD0000E8
:10296000000000207047000029B1064A12680243A7
:10297000044B1A6004E0034A12688243014B1A6058
:10298000704700003038024029B1064A12680243FD
:10299000044B1A6004E0034A12688243014B1A6038
:1029A000704700003838024029B1064A12680243D5
:1029B000044B1A6004E0034A12688243014B1A6018
:1029C000704700004038024029B1064A12680243AD
:1029D000044B1A6004E0034A12688243014B1A60F8
:1029E0007047000044380240F0B500210022002466
:1029F000022500260223324F3F6807F00C0121B167
:102A0000042905D0082937D105E02E4F076036E0AC
:102A10002D4F076033E02A4F3F1F3F68C7F38056B2
:102A2000274F3F1F3F6807F03F036EB1264FB7FBAC
:102A3000F3F7DFF88CC0ACF1040CDCF800C0CCF389
:102A4000881C07FB0CF40CE01E4FB7FBF3F7DFF814
:102A500070C0ACF1040CDCF800C0CCF3881C07FBA0
:102A60000CF4174F3F1F3F68C7F301477F1C7D00E1
:102A7000B4FBF5F7076002E0124F076000BF00BF2C
:102A80000F4F3F6807F0F0010909104F7A5C0768A3
:102A9000D74047600A4F3F6807F4E051890A0B4F5F
:102AA0007A5C4768D7408760054F3F6807F460410C
:102AB000490B064F7A5C4768D740C760F0BD0000FD
:102AC000083802400024F40000127A000F000020B1
:102AD0001CB54FF40070009000208DF80400012018
:102AE0008DF8070069460248FEF7DAFB1CBD0000BE
:102AF000000402401CB54FF40070009001208DF8D6
:102B0000040000208DF8060003208DF80500012048
:102B10008DF8070069460248FEF7C2FB1CBD0000A5
:102B20000004024021B1028842F04002028004E029
:102B300002884FF6BF731A40028070470246002099
:102B400013890B400BB1012000E0002070470146C3
:102B5000888970478181704710B50022028802F48D
:102B600041520B884C8823438C882343CC882343D1
:102B70000C8923434C8923438C892343CC892343E9
:102B80001A430280838B4FF2FF74234083830B8AA6
:102B9000038210BD00B587B001210220FFF7E4FEDB
:102BA00001218803FFF700FF05220D212848FEF7C9
:102BB000BFFB05220E212648FEF7BAFB05220F2196
:102BC0002348FEF7B5FB02208DF8180003208DF88E
:102BD000190000208DF81A008DF81B004FF460409A
:102BE000059005A91A48FEF75BFB01208DF8180037
:102BF0000003059005A91648FEF752FB4FF48051DB
:102C00001348FEF7C3FB0020ADF800004FF48270BC
:102C1000ADF802000020ADF80400ADF80600ADF8F4
:102C200008004FF40070ADF80A001020ADF80C0059
:102C30000020ADF80E000720ADF8100069460548E9
:102C4000FFF78AFF01210348FFF76CFF07B000BDC3
:102C5000000402400038004010B5044600BF0221C5
:102C60000A48FFF76BFF0028F9D021460748FFF715
:102C700071FF00BF01210548FFF760FF0028F9D070
:102C80000248FFF764FFC0B210BD000000380040EA
:102C9000704700000CB50020019000903448006897
:102CA00040F480303249086000BF3148006800F4C9
:102CB000003000900198401C0190009818B90198CC
:102CC000B0F5A04FF1D12A48006800F4003010B1EF
:102CD0000120009001E0002000900098012846D1DA
:102CE00023484030006840F080502149403108605E
:102CF0002048006840F440401E4908601C480830E5
:102D000000681B49083108600846006840F400402C
:102D100008600846006840F4A05008601648091F83
:102D20000860081F006840F08070091F086000BF3D
:102D30000F48006800F000700028F9D040F20570DC
:102D40000E4908600A480830006820F0030008496E
:102D5000083108600846006840F00200086000BFC3
:102D600003480830006800F00C000828F8D10CBDBA
:102D7000003802400070004008544007003C024008
:102D80002DE9F0412DED048B0120BE4908700A2089
:102D900048809FEDBD0A084680ED010A7B208860CF
:102DA000BA48C860002413E02146E21704EB12720F
:102DB000101100EBD0725210A0EB42020AB13C237A
:102DC00001E06FF03B03AF4A10321355601CC4B2F0
:102DD000C82CE9DB00240DE02046E11704EBD161AB
:102DE0004911A4EB4111AA4A525CA649D8310A55AF
:102DF000601CC4B2C82CEFDB002410E0C4EBC4009C
:102E00000B21B0FBF1F201FB12009E491031095D6C
:102E10000844401F41B29F480155601CC4B2C82CF1
:102E2000ECDB002417E02046E11704EB91718910D8
:102E3000A4EB8101984A525C9649C8310A55E117C2
:102E400004EB91718910A4EB8101944A525C94497E
:102E50000A55601CC4B2402CE5DB00242DE020465E
:102E6000E21704EB92729210A4EB82028A4B9A5CF6
:102E70002146E31704EB5373DB10A4EBC303894E25
:102E8000F35C1A4453B2864A40321355E21704EBFE
:102E900092729210A4EB8202804B9A5CE31704EBCF
:102EA0005373DB10A4EBC3037F4EF35C1A4453B29D
:102EB0007B4AC0321355601CC4B2802CCFDB002487
:102EC0003FE0214604EBD1735B10A4EB430313B93D
:102ED0006FF0360300E037231A46514248B200250E
:102EE0002BE0C4EBC40605EB850707EBC5073E44A2
:102EF000F61C0D27B6FBF7FC07FB1C66B61F73B26A
:102F0000032D09DC871A07FB05F6F71706EB977701
:102F100002EBA70779B20AE00B2D02DCC61871B2EA
:102F200005E01E4603EBD67700EB670779B25F4EEC
:102F300006EB04167155691CCDB2102DD1DB601C57
:102F4000C4B23C2CBDDB002693E000EE106AB8EE64
:102F5000400AF0EE000A20EE200AF0EE408AB2EEBF
:102F6000040AC8EE800AF0EE609AB2EE040A03F09A
:102F7000A1F9B0EE409AB0EE490A03F0D2FDF0EEAE
:102F8000409A03F007F8F6EE000A20EE200AB0EEB1
:102F9000408A9FED470AB4EEC08AF1EE10FA03D2E0
:102FA0009FED430AB0EE408A424800EB860080ED78
:102FB000008AB2EE040AC8EE800AF0EE609AB2EE21
:102FC000040A03F077F9F6EE000A20EE200AB0EECC
:102FD000409AB0EE490A03F0A4FDF0EE409A02F0E8
:102FE000D9FFF6EE000A20EE200AB0EE408A9FEDEF
:102FF000300AB4EEC08AF1EE10FA03D29FED2C0A2B
:10300000B0EE408A2B48303000EB860080ED008A1D
:10301000B2EE040AC8EE800AF0EE609AB2EE040A3C
:1030200003F048F9B0EE409ADFED230A69EE200A7A
:10303000B0EE600A03F075FDF0EE409A02F0AAFFD0
:10304000F5EE080A20EE200AB0EE408A9FED180A3D
:10305000B4EEC08AF1EE10FA03D29FED150AB0EE7D
:10306000408A1448603000EB860080ED008A701CB6
:10307000C6B20C2EFFF669AFFDF79AFEBDEC048BCD
:10308000BDE8F08190000020F437A13AA08601004D
:10309000707A000830020020587A00085C7A000834
:1030A00038030020607A0008687A0008780400205D
:1030B000132EE12938080020CDCCCC3D042808D1BE
:1030C0004FF0E021096941F004014FF0E022116165
:1030D00007E04FF0E021096921F004014FF0E02200
:1030E000116170477047000010B504466FF004008E
:1030F000FFF7E4FFE11704EB5171C1F3C701074A81
:1031000011701046007800EB4001C1EBC0104FF683
:10311000FF7101EAC0000249088010BD20000020B4
:103120002200002010B51548006840F470001349D3
:1031300008601348006840F0010011490860002051
:103140000F49083108600E4800680E4908400C49D4
:1031500008600D48091D0860081F006820F48020E1
:10316000091F0860002006490C310860FFF792FD36
:103170004FF0006001498039086010BD88ED00E023
:1031800000380240FFFFF6FE1030002400B59DB06D
:1031900001210846FFF7F8FB0F2007900020089058
:1031A0006020099000200A900B900C900D90152043
:1031B000009001900520029000200390049005905B
:1031C000069006200E9000200F9010901020119075
:1031D0000020129014901390159016904FF4805088
:1031E0001790002018904FF48040199000201A90FA
:1031F00007A81B90CDF870D00EA8FDF7BDFF0121E8
:103200000620FDF79FFF1DB000BD00001CB5012189
:103210007820FFF7A9FB01210220FFF7A5FB0C2274
:103220000E216248FEF784F80C220F215F48FEF75A
:103230007FF80C2200215D48FEF77AF80C2201216C
:103240005A48FEF775F80C2207215948FEF770F826
:103250000C2208215648FEF76BF80C22092154482D
:10326000FEF766F80C220A215148FEF761F80C229D
:103270000B214F48FEF75CF80C2211464C48FEF734
:1032800057F80C220D214A48FEF752F80C220E2165
:103290004748FEF74DF80C220F214548FEF748F845
:1032A0000C2208214148FEF743F80C2209213F482F
:1032B000FEF73EF80C220A213C48FEF739F80C22B2
:1032C00004213A48FEF734F80C2205213748FEF76E
:1032D0002FF80C2211463748FEF72AF80C22114627
:1032E0003548FEF725F84CF23370009002208DF837
:1032F000040000208DF8060003208DF80500012051
:103300008DF8070069462948FDF7CAFF4FF680701F
:10331000009002208DF8040000208DF806000320A4
:103320008DF8050001208DF8070069462048FDF75B
:10333000B7FF4FF48050009002208DF80400002069
:103340008DF8060003208DF8050001208DF8070098
:1033500069461848FDF7A4FF4FF480500090022002
:103360008DF8040000208DF8060003208DF805007C
:1033700001208DF8070069460F48FDF791FF4FF4D3
:103380000040009001208DF8040000208DF8060018
:1033900002208DF8050001208DF8070069460748D6
:1033A000FDF77EFF0120064908601CBD000C0240AD
:1033B00000100240001402400018024000040240C5
:1033C000BC82404210B5FFF721FFFFF7DFFE32203D
:1033D00004F0E5F9D320FEF741FFA4480088A44992
:1033E0008880A24800888880A04800888880084695
:1033F00080884FF6FF7101EA00209D4988800846C9
:1034000080884FF0D841B1F88010084398498880EF
:103410000846818897A002F0F1FCFF20FEF71EFF0E
:10342000FF20FEF71BFF052004F0B9F9FF20FEF78F
:1034300015FFFF20FEF712FFFF20FEF70FFFFF2012
:10344000FEF70CFF0A2004F0AAF9B020FEF706FFF1
:103450000020FEF709FFB320FEF700FF0220FEF771
:1034600003FF0020FEF700FF0020FEF7FDFE002016
:10347000FEF7FAFEC020FEF7F1FE1320FEF7F4FE81
:103480003B20FEF7F1FE0020FEF7EEFE0020FEF7E7
:10349000EBFE0020FEF7E8FE0120FEF7E5FE00202F
:1034A000FEF7E2FE4320FEF7DFFEC120FEF7D6FE68
:1034B0000820FEF7D9FE1B20FEF7D6FE0820FEF7F7
:1034C000D3FE0820FEF7D0FEC420FEF7C7FE112071
:1034D000FEF7CAFE0120FEF7C7FE7320FEF7C4FE0A
:1034E0000120FEF7C1FEC620FEF7B8FE0020FEF761
:1034F000BBFEC820FEF7B2FE0F20FEF7B5FE05208A
:10350000FEF7B2FE1420FEF7AFFE5C20FEF7ACFE25
:103510000320FEF7A9FE0720FEF7A6FE0720FEF710
:10352000A3FE1020FEF7A0FE0020FEF79DFE232044
:10353000FEF79AFE1020FEF797FE0720FEF794FE96
:103540000720FEF791FE5320FEF78EFE0C20FEF7BB
:103550008BFE1420FEF788FE0520FEF785FE0F2067
:10356000FEF782FE2320FEF77FFE0020FEF77CFEA2
:103570003520FEF773FE0020FEF776FE4420FEF7AE
:103580006DFE0020FEF770FE0120FEF76DFED020DC
:10359000FEF764FE0720FEF767FE0720FEF764FED5
:1035A0001D20FEF761FE0320FEF75EFED120FEF730
:1035B00055FE0320FEF758FE5B20FEF755FE102057
:1035C000FEF752FED220FEF749FE0320FEF74CFE26
:1035D0002420FEF749FE0420FEF746FE2A20FEF7CF
:1035E0003DFE0020FEF740FE0020FEF73DFE0120DC
:1035F000FEF73AFE3F20FEF737FE2B20FEF72EFEA9
:103600000020FEF731FE0020FEF72EFE0120FEF71F
:103610002BFEDF20FEF728FE3620FEF71FFE0020DF
:10362000FEF722FEC020FEF719FE1320FEF71CFE57
:103630003A20FEF713FE5520FEF716FE1120FEF786
:103640000DFE962004F0ABF82920FEF707FE1E20A1
:1036500004F0A5F82C20FEF701FE0020FEF706FB83
:103660004FF6FF70FEF7DEFA10BD00008000006C20
:103670002A000020204C43442049443A25780D0A72
:103680000000000010B501210F4800F026F8A8B195
:103690000E480078401C0D49087008460078C8287C
:1036A00009D1002008700A48006808B9012000E02C
:1036B000002007490860012004F0ECF801210248CD
:1036C00000F008F810BD0000000800407E00002057
:1036D000A4824242CA430282704730B502460020AB
:1036E00000230024158A05EA0103958905EA0104EF
:1036F00013B10CB1012000E0002030BD2DE9FC5FCA
:1037000004460D4617461E46DDE90EABDDE90C8981
:103710004FF478405749088057A01021CDE9001098
:10372000564843880288A0212820FEF763FD54A054
:103730001021CDE90010514843880288A02178204B
:10374000FEF758FD4FA01021CDE900104B484388EB
:103750000288B4212820FEF74DFD4BA01021CDE9B1
:103760000010464843880288B4217820FEF742FDC5
:1037700046A01021CDE90010404843880288C821A6
:103780002820FEF737FD42A01021CDE900103B486C
:1037900043880288C8217820FEF72CFD3DA0102127
:1037A000CDE90010354843880288DC212820FEF747
:1037B00021FD39A01021CDE900103048438802884E
:1037C000DC217820FEF716FD34A01021CDE9001091
:1037D0002A4843880288F0212820FEF70BFD10209C
:1037E00004232246A02100904020FEF7B9FC1020BF
:1037F00004232A46A02100909020FEF7B1FC10205F
:1038000004233A46B42100904020FEF7A9FC102082
:1038100004233246B42100909020FEF7A1FC102032
:1038200004234246C82100904020FEF799FC102056
:1038300004234A46C82100909020FEF791FC1020F6
:1038400004235246DC2100904020FEF789FC102022
:1038500004235A46DC2100909020FEF781FC1020C2
:1038600003230090F0216020109AFEF779FCBDE858
:10387000FC9F00002600002078313A002A0000203A
:1038800079313A0078323A0079323A0078333A00A6
:1038900079333A0078343A0079343A00666163202B
:1038A00069733A0000B597B0002012900B90129007
:1038B0001F21FE4801804FF6FF71FD480180084638
:1038C000FEF7B0F94FF47841F84801804FF6FF70E9
:1038D000FEF7A8F90020F5490880F6480068102195
:1038E0006423A022CDE9001028210846FEF782FCBF
:1038F0004FF478421421084600F054FC0020EE49B1
:1039000088869FEDEE0A084680ED0E0A46E2EA48F8
:1039100040680A9001200A998847E74890F83400E7
:1039200000F0C00040287AD100200B90E248808E41
:1039300020F04000E04988860846818913AA129841
:1039400022F82010DC48018C129802EB80004180A4
:103950001298401CC0B212901298012806D002287A
:1039600015D0032829D0042810D141E04FF6FF726A
:103970001421084600F016FCD1480088143880B2A3
:103980004FF4784214210A9000F00CFCE5E3CC4897
:103990000088143880B24FF6FF7214210A9000F0AC
:1039A00001FCC7484088143880B24FF47842014681
:1039B0000A90142000F0F6FBCFE3C1484088143889
:1039C00080B24FF6FF7201460A90142000F0EAFB25
:1039D000BB484088143880B20A90B948008814382F
:1039E00080B24FF4784209900A9900F0DBFBB4E30F
:1039F000BDF84C10BDF85000081A0A90002801DBF1
:103A00000A9801E00A9840420F90BDF84E1013A8A2
:103A1000C088081A0A90002802DB0A9802E09DE399
:103A20000A9840420E900F9840430F900E984043E2
:103A30000E90DDE90E1008440590FCF735FCCDE949
:103A400006019DED060B03F02FF88DED080B9DEDA3
:103A5000080B51EC100BFCF734FC80B21190BDF850
:103A60005400BDF85810401A0A90002801DB0A984B
:103A700001E00A9840420F9013A84189C089081AB2
:103A80000A90002801DB0A9801E00A9840420E9053
:103A90000F9840430F900E9840430E90DDE90E10B2
:103AA00008440590FCF700FCCDE906019DED060BEE
:103AB00002F0FAFF8DED080B9DED080B51EC100B99
:103AC000FCF7FFFB80B210909DED110AF8EE400A62
:103AD0009DED100AB8EE401A80EE810A8DED0A0ABB
:103AE0000A98FCF707FCCDE90C019FED760B53EC2F
:103AF000102B9DED0C0B51EC100BFCF70FFC0ED3B3
:103B00009FED720B53EC102B9DED0C0B51EC100B39
:103B1000FCF71CFC03D3119808B11098F0BB0020EF
:103B2000129067484088143880B20A906448008830
:103B3000143880B24FF6FF7209900A9900F032FBF8
:103B40004FF478421421084600F02CFB9FED610BE6
:103B500053EC102B9DED0C0B51EC100BFCF732FBD2
:103B6000CDE908019DED080B51EC100BFCF7A9FB0A
:103B700080B213A90A90C989BDF8582013AB5B899C
:103B8000CDE90132CDE90310BDF85400009013A82F
:103B9000C0880990BDF85000089000E00AE0BDF828
:103BA0004E000790BDF84C00069007A90EC9FFF71C
:103BB000A5FDE2E2BDF84C10BDF85400081A0A90C9
:103BC000002801DB0A9801E00A9840420F90BDF8F6
:103BD0004E1013A84089081A0A90002801DB0A98A1
:103BE00001E00A9840420E900F9840430F900E98C3
:103BF00040430E90DDE90E1008440590FCF754FB9D
:103C0000CDE906019DED060B02F04EFF8DED080B90
:103C10009DED080B51EC100BFCF753FB80B211909B
:103C2000BDF85010BDF85800081A0A90002801DBB2
:103C30000A9801E00A9840420F9013A8C188C089F1
:103C4000081A0A90002801DB0A9801E00A9840420D
:103C50000E900F9840430F900E9840430E90DDE970
:103C60000E1008440590FCF71FFBCDE906019DED01
:103C7000060B02F019FF8DED080B9DED080B51ECC2
:103C8000100BFCF71EFB80B210909DED110AF8EEB0
:103C9000400A9DED100AB8EE401A80EE810A8DEDC3
:103CA0000A0A0A98FCF726FB18E00000260000200C
:103CB000280000203CC40008340000200000000060
:103CC0002A000020666666666666EE3FCDCCCCCCE8
:103CD000CCCCF03F0000000000005940CDE90C01C1
:103CE0001FED080B53EC102B9DED0C0B51EC100B42
:103CF000FCF714FB0AD31FED0B0B53EC102B9DEDBF
:103D00000C0B51EC100BFCF721FB48D20020129059
:103D1000F7484088143880B20A90F5480088143873
:103D200080B24FF6FF7209900A9900F03BFA4FF407
:103D300078421421084600F035FA1FED1A0B53ECB7
:103D4000102B9DED0C0B51EC100BFCF73BFACDE961
:103D500008019DED080B51EC100BFCF7B2FA80B294
:103D600013A90A90C989BDF8582013AB5B89CDE926
:103D70000132CDE90310BDF85400009013A8C088AB
:103D80000990BDF850000890BDF84E000790BDF8AE
:103D90004C00069007A90EC9FFF7B0FCEDE1BDF895
:103DA0005000BDF85410401A0A90002801DB0A9810
:103DB00001E00A9840420F9013A8C1884089081A70
:103DC0000A90002801DB0A9801E00A9840420E9010
:103DD0000F9840430F900E9840430E90DDE90E106F
:103DE00008440590FCF760FACDE906019DED060B4D
:103DF00002F05AFE8DED080B9DED080B51EC100BF7
:103E0000FCF75FFA80B21190BDF84C00BDF8581075
:103E1000401A0A90002801DB0A9801E00A98404203
:103E20000F90BDF84E1013A8C089081A0A900028F8
:103E300001DB0A9801E00A9840420E900F98404337
:103E40000F900E9840430E90DDE90E100844059047
:103E5000FCF72AFACDE906019DED060B02F024FEDF
:103E60008DED080B9DED080B51EC100BFCF729FABA
:103E700080B210909DED110AF8EE400A9DED100AF7
:103E8000B8EE401A80EE810A8DED0A0A0A98FCF716
:103E900031FACDE90C011FED750B53EC102B9DEDA4
:103EA0000C0B51EC100BFCF739FA0AD31FED790B10
:103EB00053EC102B9DED0C0B51EC100BFCF746FA5C
:103EC00049D2002012908A484088143880B20A9063
:103ED00087480088143880B24FF6FF7209900A991B
:103EE00000F060F94FF478421421084600F05AF9C6
:103EF0001FED880B53EC102B9DED0C0B51EC100BB0
:103F0000FCF760F9CDE908019DED080B51EC100BB1
:103F1000FCF7D7F980B201460A9013A8C289BDF810
:103F2000580013AB5B89CDE90130CDE90321BDF821
:103F30005400009013A8C0880990BDF85000089064
:103F4000BDF84E000790BDF84C00069007A90EC9B9
:103F5000FFF7D4FB11E1BDF85000BDF84C10401A3A
:103F600000EE100AF8EEC00A61480088283800EE1A
:103F7000100AB8EEC00A80EE201A5E4880ED0E1AD4
:103F8000BDF85000BDF84C10084400EE100AF8EEE1
:103F9000C00A5748008800EE100AB8EE400A55489B
:103FA00090ED0E1A01EE600AF0EE000A80EE201A83
:103FB000BDEEC10A10EE100A01B24E48A0F8401042
:103FC00013A84089BDF84E10401A00EE100AF8EE12
:103FD000C00A47484088283800EE100AB8EEC00AE8
:103FE00080EE201A434880ED0F1A13A84089BDF8CF
:103FF0004E10084400EE100AF8EEC00A3C48408813
:1040000000EE100AB8EE400A3A4890ED0F1A01EEA1
:10401000600AF0EE000A80EE201ABDEEC10A10EE32
:10402000100A00B23349A1F84200084690ED0E0A8A
:10403000BDEEC00A8DED090A0998002801DB099838
:1040400001E00998404202280FDC2A4890ED0F0A4F
:10405000BDEEC00A8DED0A0A0A98002801DB0A9815
:1040600001E00A984042022854DD002012902048C6
:104070004088143880B20A901D480088143880B2F5
:104080004FF6FF7209900A9900F08CF84FF47842CD
:104090001421084600F086F817A01021CDE9001081
:1040A000134840880A9012480088099002461A2155
:1040B00028200A9BFEF79EF80E4890F8440008B9A5
:1040C000012000E000200B4981F84400084690F8E8
:1040D000440030B190200D490870D0210C48017087
:1040E00005E0D0210948017090200949087044E09A
:1040F0002A000020340000205450204E65656420C2
:10410000726561646A757374210000007C00002090
:104110007D0000201F211B4801804FF6FF70FDF736
:1041200081FD19A01021CDE900101D4840880A909A
:104130001B480088099002466E2123200A9BFEF747
:1041400059F84FF47A7003F02AFB00F00FFA4FF69B
:10415000FF70FDF767FD17B000BD00BF0A2003F038
:104160001EFB0B98401C80B20B900B98B0F57A7F29
:1041700002DD00F04FF802E000BFFFF7C8BB00BF50
:1041800000BFE8E726000020546F75636820536382
:104190007265656E2041646A757374204F4B21000F
:1041A0002A00002070B504460D46164618480680C1
:1041B00004F10D018AB2193988B22B462946FDF760
:1041C00087FD05F10D0083B2193881B222462046E1
:1041D000FDF77EFD6A1C91B2621C90B2FDF726FECF
:1041E0006A1C91B2621E90B2FDF720FE6A1E91B267
:1041F000621C90B2FDF71AFE6A1E91B2621E90B266
:10420000FDF714FE062229462046FDF73DFE70BD4F
:104210002600002010B5D520FCF733FB04460A2CFD
:1042200048D10421C820FCF716FB044600EE104AD2
:10423000B8EEC00ADFED200A80EE201A1F4880ED9C
:104240000E1A0421CC20FCF706FB044600EE104AAF
:10425000B8EEC00ADFED180A80EE201A174880ED8C
:104260000F1A0221D020FCF7F6FA00B21349A1F888
:1042700040000221D220FCF7EEFA00B20F49A1F86B
:104280004200D420FCF7FDFA0C4981F844000846AE
:1042900090F8440030B1902009490870D0200949B5
:1042A000087005E0D0200649087090200549087084
:1042B000012010BD0020FCE720BCBE4C34000020D3
:1042C0007C0000207D0000201CB501212620FEF787
:1042D0004BFB0620009000208DF804008DF80600AE
:1042E00003208DF8050001208DF8070069461B4862
:1042F000FCF7D6FF012000908DF8040069461748AE
:10430000FCF7CEFF4FF40050009001208DF8040020
:1043100069461348FCF7C4FF4FF400600090012089
:104320008DF8040069460F48FCF7BAFF0E49A1F169
:10433000140000F0A3F8FCF78AFAFFF76BFF08B14E
:1043400000201CBD4FF6FF70FDF76CFCFFF7AAFACA
:1043500000F00CF9FFF75EFF0120F2E700040240D5
:1043600000080240001402405400002070B50646C8
:104370000025002400201E4908601E49C1F8AC0237
:104380001D490860304600F0ABF9062003F04AFAF8
:1043900000201A49C1F88002012003F043FA0120ED
:1043A0001349086003F03EFA00201449C1F8800266
:1043B00000BF15E04FF6FF7000EA440400200C49EE
:1043C0000860012003F02EFA01200C49C1F8800298
:1043D00007487838006808B1601C84B2681CC5B210
:1043E000102DE7DB2411012003490860204670BD31
:1043F0008082404200804242B402414200804042FA
:104400002DE9F04194B080460027002406E04046A4
:10441000FFF7ACFF2DF81400601C84B2282CF6DBEB
:10442000002416E0601C85B20FE03DF814003DF852
:104430001510884207DD3DF814603DF815002DF891
:1044400014002DF81560681C85B2282DEDDB601C6A
:1044500084B2272CE6DB0027012404E03DF8140099
:104460000744601C84B2272CF8DB2620B7FBF0F051
:1044700086B2304614B0BDE8F08100002DE9F0416D
:1044800004460D4607480078FFF7BAFF064606487F
:104490000078FFF7B5FF074626802F800120BDE892
:1044A000F08100007C0000207D0000207FB50446E4
:1044B0000D4602A903A8FFF7E1FF064616B9002042
:1044C00004B070BD694601A8FFF7D8FF06460EB9D3
:1044D0000020F5E7BDF80400BDF80C10884206DCAA
:1044E000BDF80C10BDF80400323081420CDBBDF881
:1044F0000C00BDF80410884236DCBDF80410BDF88D
:104500000C00323081422FDABDF80000BDF80810EF
:10451000884206DCBDF80810BDF800003230814248
:104520000CDBBDF80800BDF8001088421CDCBDF8AB
:104530000010BDF808003230814215DABDF80C10C9
:10454000BDF80420881800EBD071C1F34F01218021
:10455000BDF80810BDF80020881800EBD071C1F339
:104560004F0129800120ABE70020A9E710B51D48C5
:1045700090ED0E0ADFED1C0A20EE200ABDEEC00A07
:1045800010EE104A04222146C820FCF7A6F915486F
:1045900090ED0F0ADFED140A20EE200ABDEEC00AEE
:1045A00010EE104A04222146CC20FCF796F90D4863
:1045B000B0F940100222D020FCF78FF90948B0F979
:1045C00042100222D220FCF788F9064890F84410E5
:1045D000D420FCF797F90A242146D520FCF792F95C
:1045E00010BD00003400002020BCBE4C10B50446B5
:1045F0003948006800284DD12CB13849A1F1140088
:10460000FFF754FF35E03549A1F11400FFF74EFFE5
:1046100078B332482038B0F9400000EE100AB8EE06
:10462000C00A2E48203890ED0E1A808900EE900ABC
:10463000F8EE600A01EE200ABCEEC00A10EE100A85
:104640002649203988810846B0F9420000EE100A58
:10465000B8EEC00A084690ED0F1A008C00EE900AE2
:10466000F8EE600A01EE200ABCEEC00A10EE100A55
:1046700008841A48203890F8340000F0800020BBED
:10468000C020164920398886084681898182018C9C
:1046900001851AE01148203890F8340000F08000BD
:1046A00040B10E482038808E20F080000B49203920
:1046B00088860AE0002109482038818201854FF66A
:1046C000FF7006492039888108840448203890F812
:1046D000340000F0800010BD0482404254000020ED
:1046E00070B50446002500BF17E004F0800018B143
:1046F00001200B49086002E00020094908606006BB
:10470000040E002007490860012003F08BF8012007
:104710000549C1F88002681CC5B2082DE5DB70BDF3
:10472000AC82424280824042008040422DE9FF5FDD
:1047300058200390162002906FF001064FF01409E4
:104740004FF4927001904FF07C0B0BF11A00009027
:1047500052488078002842D05048C07800283ED186
:104760004FF04408002437E004EB44000E2101EB35
:1047700040174A480089B8422CDB48480189039811
:104780003844401E814225DC44484089404521DBB5
:104790004248418902984044401E81421ADC404808
:1047A0000078A04215D03E480470FCF7F3FF00F0FB
:1047B000B7FF3B4800783B4A52F820103AA001F07E
:1047C0001DFB374801783C48FCF79DF93A48FCF757
:1047D000E7FA03E0601CC4B2032CC5DB00BF2F481E
:1047E0004078A0B12D480089042810DB2B480089AF
:1047F000B0F59E7F0BDC29484089584507DB2748E8
:1048000041890098814202DC01202C4908702B4824
:10481000007800283AD02148C07810B91F48407865
:10482000A0B31E48B0F804A0BAF10E0F01DA4FF0A1
:104830000E0ABAF5997F01DD4FF4997AAAF10E00BC
:10484000A9EB06014843019990FBF1F0304405B211
:10485000284605EBD071491049000DB2B54200DA87
:1048600035464D4500DD4D460D48B0F90200A842E1
:104870000BD00B484580FDF79BF800F051FF08482E
:10488000B0F902100EA001F0B9FA00BF0348807819
:1048900010B1002009490870BDE8FF9FCC0C002032
:1048A000900000204C7A0008546F7563683A204DE0
:1048B0006F643D25730D0A00DC0C0020030000200E
:1048C000546F7563683A20534E523D256464420D1F
:1048D0000A00000070B55A48807800B970BD584889
:1048E000C07800B1FAE740F2DF1369224FF4E271B9
:1048F000002000F0C1F8064640F2DF13D5224FF445
:10490000E2716A2000F0B8F8054640F2DF1340F289
:104910003F124FF4E271D62000F0AEF80446002EAC
:1049200039D047480089002835DB45480089692887
:1049300031DC43484089B0F5E27F2CDB40484089B8
:10494000B0F5F07F27DA002000F092FD3D480078B6
:1049500078B93D480078002803DD3B480078401EC8
:1049600000E0022038490870FCF714FF00F0D8FE80
:104970000DE034480078401DC0B2062190FBF1F2F2
:1049800001FB12002F49087001203049087030A047
:1049900001F034FA52E04DB3294800896A2825DB3A
:1049A00027480089D52821DC25484089B0F5E27FD9
:1049B0001CDB23484089B0F5F07F17DA012000F0B6
:1049C00057FD2048007868B91F480078401C032133
:1049D000B0FBF1F201FB12001B490870FCF7DAFE94
:1049E00000F09EFE1DA001F009FA27E034B3144840
:1049F0000089D62822DB12480089B0F5A07F1DDA95
:104A00000F484089B0F5E27F18DB0D484089B0F5CA
:104A1000F07F13DA022000F02BFD0A480078401CDA
:104A2000C0B2062190FBF1F201FB120005490870AB
:104A30000120064908700CA001F0E0F900BF4DE725
:104A4000CC0C00200000002090000020010000207D
:104A50004E61763A204C6566740D0A004E61763AD6
:104A6000204D69640D0A00004E61763A2052696754
:104A700068740D0A0000000010B5044609488088DB
:104A8000A0420DDB07488088904209DC0548C088B9
:104A9000884205DB0348C088984201DC012010BD34
:104AA0000020FCE7CC0C002010B50748C088B0F50A
:104AB000E27F02DBFFF70EFF10BD0448007808B963
:104AC000FFF734FE00BFF7E7CC0C00200000002009
:104AD00010B52A4890F83400C0F3C01200202849CD
:104AE00048708870002A35D02448808988802348FF
:104AF000008CC8800846007B60B9012048700846D9
:104B0000808808810846C08848810020C8701D49F7
:104B100008701BE01A4B9B88194C24891B1B18B288
:104B2000174BDB88164C64891B1B19B2002801DA6D
:104B3000434218B2002901DA4B4219B2082801DCBD
:104B4000082902DD01230E4CE37000BF01200C494F
:104B500008700FE00A48007B10B1012008498870F6
:104B6000002007490870C8700846807810B10020FE
:104B7000044908700248027310BD00003400002090
:104B8000CC0C0020030000202DE9FF4F2DED048BFD
:104B900097B01B981E3087B21C98001D86B21D98D6
:104BA00022381FFA80F91E98163885B20020069028
:104BB0000590FE48119030301290303013904FF431
:104BC000FC60ADF83C0047F6FF70ADF83E004FF6D4
:104BD000E070ADF8400041F2A20000901E991C98D0
:104BE0000844401E83B21D991B980844401E82B29F
:104BF000DDE91B01FDF794F91E991C980844401E3D
:104C000083B21D991B980844401E82B2DDE91B0146
:104C1000FDF71CF94FF6FF700090701983B23A4609
:104C200031463846FDF7ACF84FF6FF70009070192A
:104C300083B207EB090082B2701981B23846FDF7E2
:104C40009FF84AF67550DA49088041F2A200D94926
:104C500008804FF0000825E005FB08F0032190FBD9
:104C6000F1F0304480B2159042F6451007EB09018F
:104C70008AB2B91E009088B2159B1946FDF780F8DC
:104C8000CD4850F828000C21CDE900101598001FE0
:104C900081B20C231C221B98FDF7ACFA08F101002D
:104CA00000F0FF08B8F1040FD6DB4FF0000833E046
:104CB00009FB08F0052190FBF1F0384482B216920E
:104CC000BE4850F8280000788DF85000BB4850F8D6
:104CD000280040788DF8510000208DF8520042F6EF
:104CE000451000907019801C83B23146169A104608
:104CF000FDF746F814A80C217219D21CCDE900105A
:104D000091B2169A121F90B20C231422FDF772FA78
:104D100008F1010000F0FF08B8F1060FC8DBA8A0F9
:104D20000C2109EBD97207EB6202143ACDF80C9012
:104D3000CDE9001090B272190C3291B20C233222DC
:104D4000FDF758FA0024FFE000200E904FF0010B11
:104D5000C1E011A850F8240000EB8B0090ED000A90
:104D6000F0EE408AF5EEC08AF1EE10FA03D89FED1E
:104D7000960AF0EE408AB0EE688A00200A9009E0B8
:104D8000B2EE040A28EE000AB0EE408A0A98401EED
:104D900040B20A90B7EE000AB4EEC08AF1EE10FA03
:104DA00003D20A9810F1070FEADCB7EE000A38EEDA
:104DB000400AB2EE021AC0EE010A9DED0A0AB8EEF0
:104DC000C00A30EE809AF1EE490A00EE105AB8EEB1
:104DD000400A20EE800AF1EE080A80EE201ABDEEAD
:104DE000C10A10EE100A00B209900998002801DAF1
:104DF0000020099029B20998884201DD28B2099063
:104E0000ABF1010000FB09F00A21B0FBF1F03844DE
:104E100080B20B90099830441FFA80FA6B480078F2
:104E2000A04222D1ABF1010000EE900AF8EEE00AB8
:104E3000B0EE001A60EE810AB0EE600A6348B0F985
:104E4000020000EE900AF8EEE00A70EE600AF0EE62
:104E5000E00AB7EE001AF4EEC10AF1EE10FA03D838
:104E60000B980690CDF814A000BF0E9848B30FA879
:104E700030F8140053460090DDE90B210D98FCF743
:104E80007FFF52480078A0421BD10FA830F81400D1
:104E90000090AAF1010083B20C98401E81B20B9AD7
:104EA0000D98FCF76DFF0FA830F8140000900AF180
:104EB000010083B20C98401C81B20B9A0D98FCF74C
:104EC0005FFF0B980D90CDF830A001200E900BF1F4
:104ED000010000F0FF0BBBF10C0FFFF63AAF07EB40
:104EE0000900343880B20890C4EBC401B01D00EB57
:104EF000410080B207900FA830F814000090079886
:104F0000001D83B208980C3082B20798001D81B250
:104F10000898FCF735FF0FA830F8140024490880E2
:104F200041F2A20023490880294850F824000C21AE
:104F3000CDE9001008990E3188B20C23242207997C
:104F4000FDF758F9601CC4B2032CFFF6FDAE7019D2
:104F500080B204900EE04FF4784000900498C01E98
:104F600083B2069A10460499FCF70AFF0498801F42
:104F700080B20490DDE904018842ECDC4FF4784013
:104F80000090DDF814C00CF1030C1FFA8CF3DDF86F
:104F900018C00CF1030C1FFA8CF2DDF814C0ACF150
:104FA000030C1FFA8CF1DDF818C013E0380800205C
:104FB00026000020280000209C7A0008AC7A000817
:104FC000534E522864422900132EE12990000020FC
:104FD000907A0008ACF1030C1FFA8CF0FCF7A0FFEC
:104FE00017B0BDEC048BBDE8FF8F00002DE9F04F3A
:104FF00089B006460C4617461D46284605EBD0717B
:1050000004EB61011FFA81F941F2A20000906019DE
:10501000401E83B2F019401E82B221463046FCF792
:105020007FFF6019401E83B2F019401E82B22146F4
:105030003046FCF70BFF42F64510F119891E8AB283
:10504000711C009088B24B464946FCF799FE42F627
:105050004510BB4607EBDB7C06EB6C0C1FFA8CF2B1
:1050600007EBD77C06EB6C0C029700901FFA8CF0D4
:1050700004EB050CACF1020C1FFA8CF304F1010CEB
:105080001FFA8CF1FCF77CFE4FF0000A7BE04FF03A
:10509000010871E04F4901EB0A12A8F101015256D3
:1050A000284605EBD0714910891E12FB01F14622FA
:1050B00091FBF2F109B2089105EBD07149108A1EFB
:1050C000444901EB0A1111F9081012FB01F14622C3
:1050D00091FBF2F109B207910899A9EB010080B2A6
:1050E00006900799A9EB010080B20590A8F1010193
:1050F00089B23A1F01FB02F0C11700EB11710A11CE
:10510000B11C114489B20491391F01FB08F0C11789
:1051100000EB11710A11B11C114489B20391611C99
:105120000698884202DA601C80B206906019801EE0
:105130000699884203DA6019801E80B20690611CCD
:105140000598884202DA601C80B205906019801EC2
:105150000599884203DA6019801E80B205904FF4E9
:1051600078700090DDE90531DDE90320FCF708FEE9
:1051700008F1010000F0FF08B8F1100F8ADB0AF116
:10518000010000F0FF0ABAF13C0F80DB4FF4FC6035
:105190001149088041F2A2001049088010A00C219A
:1051A000A21CCDE9001091B2F21C90B20C23502247
:1051B000FDF720F80DA00C2162190E3ACDE9001080
:1051C00091B2F21C90B20C23C822FDF713F809B07B
:1051D000BDE8F08F78040020260000202800002081
:1051E000457965204469616772616D0036302074CD
:1051F0007261636573202F20322073796D00000087
:105200002DE9FF4F81B005460E46144641F2A2003B
:1052100006EB040C0CF1020C1FFA8CF305EB040CEA
:105220000CF1020C1FFA8CF2A6EB040CACF1020C90
:105230001FFA8CF1A5EB040CACF1020C00901FFAE4
:105240008CF0FCF76DFE06EB040C0CF1020C1FFA5F
:105250008CF305EB040C0CF1020C1FFA8CF2A6EB9C
:10526000040CACF1020C1FFA8CF1A5EB040CACF1B0
:10527000020C1FFA8CF0FCF7E9FD42F645102919E3
:105280008AB2291B009088B233463146FCF778FD7C
:1052900042F645100090301983B2301B81B22A4685
:1052A0002846FCF76DFD002749E01099C95711FB0E
:1052B00004F0C11700EB916189110FFA81FA11997D
:1052C000C957494211FB04F0C11700EB91618911E4
:1052D0000FFA81FB05EB0A001FFA80F806EB0B00C2
:1052E0001FFA80F9281B404508DC2819404505DBDA
:1052F000301B484502DC3019484500DA1DE04FF606
:105300001F0249464046FCF7D5FC291908F1010067
:10531000814206DB014688B24FF61F024946FCF780
:10532000C9FC311909F10100814205DB81B24FF658
:105330001F024046FCF7BEFC00BF781CC7B21298A3
:105340008742B2DB002737E00499C95711FB04F00C
:10535000C11700EB916189110FFA81FA0E99C957B3
:10536000494211FB04F0C11700EB916189110FFA5A
:1053700081FB05EB0A001FFA80F806EB0B001FFA11
:1053800080F9281B404508DC2819404505DB301B07
:10539000484502DC3019484500DA0BE00322494653
:1053A0004046FCF771FD40F2FF7249464046FCF76B
:1053B00081FC00BF781CC7B20F988742C4DB05B0E0
:1053C000BDE8F08F7CB506460C46154642F6451002
:1053D00040F2DF1340F23F124FF4E27100900020E0
:1053E000FCF79EFD42F6451040F2DF1369224FF4B0
:1053F000E27100901046FCF7C3FC42F6451040F203
:10540000DF13D5224FF4E27100901046FCF7B8FC90
:1054100047F6FF701449088042F64510134908808A
:105420000C201023642240F2CB11CDE900060420A9
:10543000FCF7E0FE0C201023642240F2CB11CDE9F2
:1054400000046E20FCF7D6FE4FF6E0700649088097
:105450000C201023642240F2CB11CDE90005DA20A4
:10546000FCF7C8FE7CBD00002600002028000020BC
:10547000F8B5064616B90024692507E0012E02D1C9
:105480006A24D52502E0D62440F23F1544F669206F
:1054900040F2DF132A464FF4E27100902046FCF7F9
:1054A0003FFD502002F07BF900F03AF9F8BD000012
:1054B0002DE9F04F2DED048B87B005460F461646BB
:1054C000984641F2A200009007EB0800401E83B20C
:1054D000A819401E82B239462846FCF721FD07EB89
:1054E0000800401E83B2A819401E82B239462846E1
:1054F000FCF7ACFC07EB080010381FFA80F9301FEE
:105500001FFA80FABAF1800F01DD4FF0800AF7EE42
:10551000008A9FED7D9A00200490012415E01498E4
:1055200000EB840090ED008AB4EEE88AF1EE10FA08
:1055300001DDF0EE488AB4EEC98AF1EE10FA02DD20
:10554000B0EE489A0494601C84B2802CE7DB0124FE
:1055500013E0301F6043A91C01EB900080B2039060
:1055600042F64510009007F10E0081B24B46039AB7
:105570001046FCF705FC601C84B2042CE9D300241F
:105580003CE0E001B0FBFAF080B206901499069876
:1055900001EB800090ED000AB0EE408A88EE280A08
:1055A000F0EE409AB7EE000AF4EEC09AF1EE10FA6F
:1055B00003DDB7EE000AF0EE409AA8F11E0000EEFF
:1055C000100AB8EEC00A20EE290ABCEEC00A10EE9E
:1055D000100A1FFA80FBA81C204480B20590BBF182
:1055E000000F09D015980090A9EB0B0083B2494633
:1055F000059A1046FCF7C4FB601C84B25445C0DB1E
:1056000042F64510A919891E8AB2691C009088B219
:105610004B464946FCF7B4FB47F6FF703B49088010
:1056200041F2A2003A4908800C211698BA1CCDE933
:10563000001091B2EA1C90B20C238C22FCF7DAFD28
:105640004AF675503149088032A00C2109F1020256
:10565000CDE9001091B2EA1C90B20C231E22FCF797
:10566000C9FD2DA00C2109F10202CDE9001091B273
:10567000AA19283A90B20C232822FCF7BBFDB5EEFC
:10568000C09AF1EE10FA3ADD301F04994843A91C84
:1056900001EBD01080B20390C9EE280AA8F11E00D9
:1056A00000EE100AB8EEC00A20EE800ABCEEC00A76
:1056B00010EE100A80B202900298A9EB000080B2AE
:1056C00001904FF478400090DDF804C00CF1020C1A
:1056D0001FFA8CF3DDF80CC00CF1020C1FFA8CF2EF
:1056E000DDF804C0ACF1020C1FFA8CF1DDF80CC03F
:1056F000ACF1020C1FFA8CF0FCF712FC00BF07B0F3
:10570000BDEC048BBDE8F08F0000000026000020F7
:10571000280000203000000046732F3200000000F7
:105720002DE9F0412DED028B88B042F6451040F294
:10573000DF1340F23F124FF4E27100900020FCF7BB
:10574000EFFB4AF675505F49088042F645105E4906
:1057500008805E4800785E4951F820000C21102333
:105760003C22CDE900104FF4E5710420FCF742FD26
:1057700053208DF814004E208DF8150052208DF81E
:1057800016003A208DF8170004245048B0F9025052
:10579000002D07DA2D222046611CCCB205A90A543F
:1057A000684205B20A2D09DB0A2095FBF0F0303083
:1057B000C2B22046611CCCB205A90A540A2095FB4E
:1057C000F0F100FB11503030C2B22046611CCCB267
:1057D00005A90A5464222046611CCCB205A90A54CA
:1057E00042222046611CCCB205A90A54002008556B
:1057F00005A80C2110233C22CDE900104FF4E571DF
:105800008420FCF7F7FC314890ED018A002607E080
:10581000B2EE040A28EE000AB0EE408A701CC6B24E
:105820009FED2C0AB4EEC08AF1EE10FA01D2092ED7
:10583000EEDB3C208DF8080031208DF80900452072
:105840008DF80A002D208DF80B00042706F130009A
:10585000C2B239467F1C02A84254002002A9C85592
:105860001A4890ED010ADFED1C0AB4EEE00AF1EEF1
:1058700010FA02D24FF4FC600EE0144890ED010AD9
:10588000DFED160AB4EEE00AF1EE10FA02D24FF69E
:10589000E07001E04FF4784080460A48A0F80080AC
:1058A00002A80C2110233222CDE900104FF4E5713B
:1058B0004FF48570FCF79EFC08B0BDEC028BBDE890
:1058C000F081000026000020280000209000002029
:1058D0004C7A0008CDCCCC3D17B7D1380AD7233C41
:1058E0003EB5044640F21130232340F23F1200211E
:1058F00000900846FCF714FB47F6FF7023230422B0
:10590000002100900846FCF70BFB4FF6FF7015498D
:10591000088040F211301449088010201823C82252
:105920000821CDE900040A20FCF764FC0F48007848
:105930003130C0B28DF808002F208DF809003620D4
:105940008DF80A0000208DF80B0002A80C2110230E
:105950001E22CDE900100A214FF49170FCF74AFC99
:105960003EBD00002600002028000020000000208E
:105970002DE9F04F8BB006460C4690461D46DDF8EB
:1059800054A0284605EBD07104EB61011FFA81F9A0
:10599000A8F1040080B2504501DD504602E0A8F1B4
:1059A000040080B2834641F2A20000906019401EBC
:1059B00083B206EB0800401E82B221463046FCF757
:1059C000AFFA6019401E83B206EB0800401E82B297
:1059D00021463046FCF73AFA42F6451006EB08013C
:1059E000891E8AB2711C009088B24B464946FCF76A
:1059F000C7F9012760E0781E00FB0AF0B0FBFBF05E
:105A000081B20A9107FB0AF0B0FBFBF081B2099169
:105A1000284605EBD07149108A1E149B0A995956E5
:105A200012FB01F17F2291FBF2F109B2089105EB23
:105A3000D07149108A1E149B0999595612FB01F125
:105A40007F2291FBF2F109B207910899A9EB0100BD
:105A500080B206900799A9EB010080B20590781EEC
:105A6000B11C084480B20490B01C384480B203904A
:105A70000698A04200DA06946019401E06998842F2
:105A800003DA6019401E80B206900598A04200DA41
:105A900005946019401E0599884203DA6019401E7A
:105AA00080B2059016980090DDE90531DDE903200C
:105AB000FCF766F9781C87B25F459CDB0A491698AB
:105AC000088041F2A200094908800C211798A21C05
:105AD000CDE9001091B2F21C90B20C233C22FCF7ED
